{
  "contractName": "SupplyChain",
  "abi": [
    {
      "inputs": [],
      "stateMutability": "nonpayable",
      "type": "constructor"
    },
    {
      "anonymous": false,
      "inputs": [
        {
          "indexed": true,
          "internalType": "address",
          "name": "account",
          "type": "address"
        }
      ],
      "name": "ConsumerAdded",
      "type": "event"
    },
    {
      "anonymous": false,
      "inputs": [
        {
          "indexed": true,
          "internalType": "address",
          "name": "account",
          "type": "address"
        }
      ],
      "name": "ConsumerRemoved",
      "type": "event"
    },
    {
      "anonymous": false,
      "inputs": [
        {
          "indexed": true,
          "internalType": "address",
          "name": "account",
          "type": "address"
        }
      ],
      "name": "DistributorAdded",
      "type": "event"
    },
    {
      "anonymous": false,
      "inputs": [
        {
          "indexed": true,
          "internalType": "address",
          "name": "account",
          "type": "address"
        }
      ],
      "name": "DistributorRemoved",
      "type": "event"
    },
    {
      "anonymous": false,
      "inputs": [
        {
          "indexed": true,
          "internalType": "address",
          "name": "account",
          "type": "address"
        }
      ],
      "name": "FarmerAdded",
      "type": "event"
    },
    {
      "anonymous": false,
      "inputs": [
        {
          "indexed": true,
          "internalType": "address",
          "name": "account",
          "type": "address"
        }
      ],
      "name": "FarmerRemoved",
      "type": "event"
    },
    {
      "anonymous": false,
      "inputs": [
        {
          "indexed": false,
          "internalType": "uint256",
          "name": "upc",
          "type": "uint256"
        }
      ],
      "name": "ForSale",
      "type": "event"
    },
    {
      "anonymous": false,
      "inputs": [
        {
          "indexed": false,
          "internalType": "uint256",
          "name": "upc",
          "type": "uint256"
        }
      ],
      "name": "Harvested",
      "type": "event"
    },
    {
      "anonymous": false,
      "inputs": [
        {
          "indexed": false,
          "internalType": "uint256",
          "name": "upc",
          "type": "uint256"
        }
      ],
      "name": "Packed",
      "type": "event"
    },
    {
      "anonymous": false,
      "inputs": [
        {
          "indexed": false,
          "internalType": "uint256",
          "name": "upc",
          "type": "uint256"
        }
      ],
      "name": "Processed",
      "type": "event"
    },
    {
      "anonymous": false,
      "inputs": [
        {
          "indexed": false,
          "internalType": "uint256",
          "name": "upc",
          "type": "uint256"
        }
      ],
      "name": "Purchased",
      "type": "event"
    },
    {
      "anonymous": false,
      "inputs": [
        {
          "indexed": false,
          "internalType": "uint256",
          "name": "upc",
          "type": "uint256"
        }
      ],
      "name": "Received",
      "type": "event"
    },
    {
      "anonymous": false,
      "inputs": [
        {
          "indexed": true,
          "internalType": "address",
          "name": "account",
          "type": "address"
        }
      ],
      "name": "RetailerAdded",
      "type": "event"
    },
    {
      "anonymous": false,
      "inputs": [
        {
          "indexed": true,
          "internalType": "address",
          "name": "account",
          "type": "address"
        }
      ],
      "name": "RetailerRemoved",
      "type": "event"
    },
    {
      "anonymous": false,
      "inputs": [
        {
          "indexed": false,
          "internalType": "uint256",
          "name": "upc",
          "type": "uint256"
        }
      ],
      "name": "Shipped",
      "type": "event"
    },
    {
      "anonymous": false,
      "inputs": [
        {
          "indexed": false,
          "internalType": "uint256",
          "name": "upc",
          "type": "uint256"
        }
      ],
      "name": "Sold",
      "type": "event"
    },
    {
      "inputs": [
        {
          "internalType": "address",
          "name": "account",
          "type": "address"
        }
      ],
      "name": "addConsumer",
      "outputs": [],
      "stateMutability": "nonpayable",
      "type": "function"
    },
    {
      "inputs": [
        {
          "internalType": "address",
          "name": "account",
          "type": "address"
        }
      ],
      "name": "addDistributor",
      "outputs": [],
      "stateMutability": "nonpayable",
      "type": "function"
    },
    {
      "inputs": [
        {
          "internalType": "address",
          "name": "account",
          "type": "address"
        }
      ],
      "name": "addFarmer",
      "outputs": [],
      "stateMutability": "nonpayable",
      "type": "function"
    },
    {
      "inputs": [
        {
          "internalType": "address",
          "name": "account",
          "type": "address"
        }
      ],
      "name": "addRetailer",
      "outputs": [],
      "stateMutability": "nonpayable",
      "type": "function"
    },
    {
      "inputs": [
        {
          "internalType": "address",
          "name": "account",
          "type": "address"
        }
      ],
      "name": "isConsumer",
      "outputs": [
        {
          "internalType": "bool",
          "name": "",
          "type": "bool"
        }
      ],
      "stateMutability": "view",
      "type": "function",
      "constant": true
    },
    {
      "inputs": [
        {
          "internalType": "address",
          "name": "account",
          "type": "address"
        }
      ],
      "name": "isDistributor",
      "outputs": [
        {
          "internalType": "bool",
          "name": "",
          "type": "bool"
        }
      ],
      "stateMutability": "view",
      "type": "function",
      "constant": true
    },
    {
      "inputs": [
        {
          "internalType": "address",
          "name": "account",
          "type": "address"
        }
      ],
      "name": "isFarmer",
      "outputs": [
        {
          "internalType": "bool",
          "name": "",
          "type": "bool"
        }
      ],
      "stateMutability": "view",
      "type": "function",
      "constant": true
    },
    {
      "inputs": [
        {
          "internalType": "address",
          "name": "account",
          "type": "address"
        }
      ],
      "name": "isRetailer",
      "outputs": [
        {
          "internalType": "bool",
          "name": "",
          "type": "bool"
        }
      ],
      "stateMutability": "view",
      "type": "function",
      "constant": true
    },
    {
      "inputs": [],
      "name": "renounceConsumer",
      "outputs": [],
      "stateMutability": "nonpayable",
      "type": "function"
    },
    {
      "inputs": [],
      "name": "renounceDistributor",
      "outputs": [],
      "stateMutability": "nonpayable",
      "type": "function"
    },
    {
      "inputs": [],
      "name": "renounceFarmer",
      "outputs": [],
      "stateMutability": "nonpayable",
      "type": "function"
    },
    {
      "inputs": [],
      "name": "renounceRetailer",
      "outputs": [],
      "stateMutability": "nonpayable",
      "type": "function"
    },
    {
      "inputs": [],
      "name": "kill",
      "outputs": [],
      "stateMutability": "nonpayable",
      "type": "function"
    },
    {
      "inputs": [
        {
          "internalType": "uint256",
          "name": "_upc",
          "type": "uint256"
        },
        {
          "internalType": "address",
          "name": "_originFarmerID",
          "type": "address"
        },
        {
          "internalType": "string",
          "name": "_originFarmName",
          "type": "string"
        },
        {
          "internalType": "string",
          "name": "_originFarmInformation",
          "type": "string"
        },
        {
          "internalType": "string",
          "name": "_originFarmLatitude",
          "type": "string"
        },
        {
          "internalType": "string",
          "name": "_originFarmLongitude",
          "type": "string"
        },
        {
          "internalType": "string",
          "name": "_productNotes",
          "type": "string"
        }
      ],
      "name": "harvestItem",
      "outputs": [],
      "stateMutability": "nonpayable",
      "type": "function"
    },
    {
      "inputs": [
        {
          "internalType": "uint256",
          "name": "_upc",
          "type": "uint256"
        }
      ],
      "name": "processItem",
      "outputs": [],
      "stateMutability": "nonpayable",
      "type": "function"
    },
    {
      "inputs": [
        {
          "internalType": "uint256",
          "name": "_upc",
          "type": "uint256"
        }
      ],
      "name": "packItem",
      "outputs": [],
      "stateMutability": "nonpayable",
      "type": "function"
    },
    {
      "inputs": [
        {
          "internalType": "uint256",
          "name": "_upc",
          "type": "uint256"
        },
        {
          "internalType": "uint256",
          "name": "_price",
          "type": "uint256"
        }
      ],
      "name": "sellItem",
      "outputs": [],
      "stateMutability": "nonpayable",
      "type": "function"
    },
    {
      "inputs": [
        {
          "internalType": "uint256",
          "name": "_upc",
          "type": "uint256"
        }
      ],
      "name": "buyItem",
      "outputs": [],
      "stateMutability": "payable",
      "type": "function",
      "payable": true
    },
    {
      "inputs": [
        {
          "internalType": "uint256",
          "name": "_upc",
          "type": "uint256"
        }
      ],
      "name": "shipItem",
      "outputs": [],
      "stateMutability": "nonpayable",
      "type": "function"
    },
    {
      "inputs": [
        {
          "internalType": "uint256",
          "name": "_upc",
          "type": "uint256"
        }
      ],
      "name": "receiveItem",
      "outputs": [],
      "stateMutability": "nonpayable",
      "type": "function"
    },
    {
      "inputs": [
        {
          "internalType": "uint256",
          "name": "_upc",
          "type": "uint256"
        }
      ],
      "name": "purchaseItem",
      "outputs": [],
      "stateMutability": "nonpayable",
      "type": "function"
    },
    {
      "inputs": [
        {
          "internalType": "uint256",
          "name": "_upc",
          "type": "uint256"
        }
      ],
      "name": "fetchItemBufferOne",
      "outputs": [
        {
          "internalType": "uint256",
          "name": "itemSKU",
          "type": "uint256"
        },
        {
          "internalType": "uint256",
          "name": "itemUPC",
          "type": "uint256"
        },
        {
          "internalType": "address",
          "name": "ownerID",
          "type": "address"
        },
        {
          "internalType": "address",
          "name": "originFarmerID",
          "type": "address"
        },
        {
          "internalType": "string",
          "name": "originFarmName",
          "type": "string"
        },
        {
          "internalType": "string",
          "name": "originFarmInformation",
          "type": "string"
        },
        {
          "internalType": "string",
          "name": "originFarmLatitude",
          "type": "string"
        },
        {
          "internalType": "string",
          "name": "originFarmLongitude",
          "type": "string"
        }
      ],
      "stateMutability": "view",
      "type": "function",
      "constant": true
    },
    {
      "inputs": [
        {
          "internalType": "uint256",
          "name": "_upc",
          "type": "uint256"
        }
      ],
      "name": "fetchItemBufferTwo",
      "outputs": [
        {
          "internalType": "uint256",
          "name": "itemSKU",
          "type": "uint256"
        },
        {
          "internalType": "uint256",
          "name": "itemUPC",
          "type": "uint256"
        },
        {
          "internalType": "uint256",
          "name": "productID",
          "type": "uint256"
        },
        {
          "internalType": "string",
          "name": "productNotes",
          "type": "string"
        },
        {
          "internalType": "uint256",
          "name": "productPrice",
          "type": "uint256"
        },
        {
          "internalType": "uint256",
          "name": "itemState",
          "type": "uint256"
        },
        {
          "internalType": "address",
          "name": "distributorID",
          "type": "address"
        },
        {
          "internalType": "address",
          "name": "retailerID",
          "type": "address"
        },
        {
          "internalType": "address",
          "name": "consumerID",
          "type": "address"
        }
      ],
      "stateMutability": "view",
      "type": "function",
      "constant": true
    }
  ],
  "bytecode": "0x60806040523480156200001157600080fd5b506200002333620000ad60201b60201c565b62000034336200010e60201b60201c565b62000045336200012c60201b60201c565b62000056336200014a60201b60201c565b33600460006101000a81548173ffffffffffffffffffffffffffffffffffffffff021916908373ffffffffffffffffffffffffffffffffffffffff16021790555060016006819055506001600581905550620002b1565b620000c88160006200016860201b620021e01790919060201c565b8073ffffffffffffffffffffffffffffffffffffffff167f2e0ded4123377a3c2bc9a26f1717655a129e2f20752924d42e730ec89c83dbd060405160405180910390a250565b620001298160016200016860201b620021e01790919060201c565b50565b620001478160026200016860201b620021e01790919060201c565b50565b620001658160036200016860201b620021e01790919060201c565b50565b600073ffffffffffffffffffffffffffffffffffffffff168173ffffffffffffffffffffffffffffffffffffffff161415620001a357600080fd5b620001b582826200021e60201b60201c565b15620001c057600080fd5b60018260000160008373ffffffffffffffffffffffffffffffffffffffff1673ffffffffffffffffffffffffffffffffffffffff16815260200190815260200160002060006101000a81548160ff0219169083151502179055505050565b60008073ffffffffffffffffffffffffffffffffffffffff168273ffffffffffffffffffffffffffffffffffffffff1614156200025a57600080fd5b8260000160008373ffffffffffffffffffffffffffffffffffffffff1673ffffffffffffffffffffffffffffffffffffffff16815260200190815260200160002060009054906101000a900460ff16905092915050565b612d9680620002c16000396000f3fe6080604052600436106101405760003560e01c806380fc0ce4116100b6578063bdd8a6a81161006f578063bdd8a6a81461043d578063d38ea5bf14610466578063db0e6a2f1461048f578063e7fb74c7146104a6578063f30fc480146104c2578063f61c899a146104eb57610140565b806380fc0ce41461031d578063834ff739146103345780638ec4f505146103715780638f0c86fa1461039a578063a26be999146103d7578063b94290691461040057610140565b806361e6982d1161010857806361e6982d14610214578063644241db1461022b57806366225ff9146102425780637250e2241461028757806377c45913146102b057806380c3f96d146102f457610140565b8063112940f9146101455780632d9235611461016e57806341c0e1b51461019757806349dae766146101ae5780635da09b88146101d7575b600080fd5b34801561015157600080fd5b5061016c6004803603810190610167919061261c565b610514565b005b34801561017a57600080fd5b506101956004803603810190610190919061267f565b610575565b005b3480156101a357600080fd5b506101ac6106d0565b005b3480156101ba57600080fd5b506101d560048036038101906101d091906126bf565b610763565b005b3480156101e357600080fd5b506101fe60048036038101906101f9919061261c565b6108a2565b60405161020b9190612707565b60405180910390f35b34801561022057600080fd5b506102296108bf565b005b34801561023757600080fd5b5061024061090d565b005b34801561024e57600080fd5b50610269600480360381019061026491906126bf565b61095b565b60405161027e999897969594939291906127d9565b60405180910390f35b34801561029357600080fd5b506102ae60048036038101906102a9919061261c565b610edd565b005b3480156102bc57600080fd5b506102d760048036038101906102d291906126bf565b610f3e565b6040516102eb98979695949392919061286d565b60405180910390f35b34801561030057600080fd5b5061031b6004803603810190610316919061261c565b61149c565b005b34801561032957600080fd5b506103326114ba565b005b34801561034057600080fd5b5061035b6004803603810190610356919061261c565b6114c5565b6040516103689190612707565b60405180910390f35b34801561037d57600080fd5b506103986004803603810190610393919061261c565b6114e2565b005b3480156103a657600080fd5b506103c160048036038101906103bc919061261c565b611543565b6040516103ce9190612707565b60405180910390f35b3480156103e357600080fd5b506103fe60048036038101906103f991906126bf565b611560565b005b34801561040c57600080fd5b506104276004803603810190610422919061261c565b6116eb565b6040516104349190612707565b60405180910390f35b34801561044957600080fd5b50610464600480360381019061045f9190612a3c565b611708565b005b34801561047257600080fd5b5061048d600480360381019061048891906126bf565b611ad0565b005b34801561049b57600080fd5b506104a4611c5a565b005b6104c060048036038101906104bb91906126bf565b611ca8565b005b3480156104ce57600080fd5b506104e960048036038101906104e491906126bf565b611f62565b005b3480156104f757600080fd5b50610512600480360381019061050d91906126bf565b6120a1565b005b61051d336114c5565b61052657600080fd5b61052f8161228c565b8073ffffffffffffffffffffffffffffffffffffffff167f28b26e7a3d20aedbc5f8f2ebf7da671c0491723a2b78f47a097b0e46dee0714260405160405180910390a250565b816002600781111561058a57610589612b6a565b5b60076000838152602001908152602001600020600b0160009054906101000a900460ff1660078111156105c0576105bf612b6a565b5b146105ca57600080fd5b6007600084815260200190815260200160002060030160009054906101000a900473ffffffffffffffffffffffffffffffffffffffff168073ffffffffffffffffffffffffffffffffffffffff163373ffffffffffffffffffffffffffffffffffffffff161461063957600080fd5b8260076000868152602001908152602001600020600a0181905550600360076000868152602001908152602001600020600b0160006101000a81548160ff0219169083600781111561068e5761068d612b6a565b5b02179055507fa96ae0fc3224ebd79eebfe54bd130cc9cb94416cddd1f2386115e00b72532468846040516106c29190612b99565b60405180910390a150505050565b600460009054906101000a900473ffffffffffffffffffffffffffffffffffffffff1673ffffffffffffffffffffffffffffffffffffffff163373ffffffffffffffffffffffffffffffffffffffff16141561076157600460009054906101000a900473ffffffffffffffffffffffffffffffffffffffff1673ffffffffffffffffffffffffffffffffffffffff16ff5b565b806000600781111561077857610777612b6a565b5b60076000838152602001908152602001600020600b0160009054906101000a900460ff1660078111156107ae576107ad612b6a565b5b146107b857600080fd5b6007600083815260200190815260200160002060030160009054906101000a900473ffffffffffffffffffffffffffffffffffffffff168073ffffffffffffffffffffffffffffffffffffffff163373ffffffffffffffffffffffffffffffffffffffff161461082757600080fd5b600160076000858152602001908152602001600020600b0160006101000a81548160ff0219169083600781111561086157610860612b6a565b5b02179055507f5afe3b1bf87069693c075da5c22a98d63d1aef98a30dbbe538d0781a98b77ee5836040516108959190612b99565b60405180910390a1505050565b60006108b88260026122a390919063ffffffff16565b9050919050565b6108c833612335565b3373ffffffffffffffffffffffffffffffffffffffff167fe3f5ed5f263f1f01764a96edfc7d025f511ec5f7d180e8816908b78bcf74f09860405160405180910390a2565b6109163361234c565b3373ffffffffffffffffffffffffffffffffffffffff167f126174f6cf49c81cdb4a9214c6b8f037bef55b4ec31e4fc776cea2a1c8a88d5960405160405180910390a2565b60008060006060600080600080600080600760008c8152602001908152602001600020604051806101e001604052908160008201548152602001600182015481526020016002820160009054906101000a900473ffffffffffffffffffffffffffffffffffffffff1673ffffffffffffffffffffffffffffffffffffffff1673ffffffffffffffffffffffffffffffffffffffff1681526020016003820160009054906101000a900473ffffffffffffffffffffffffffffffffffffffff1673ffffffffffffffffffffffffffffffffffffffff1673ffffffffffffffffffffffffffffffffffffffff168152602001600482018054610a5a90612be3565b80601f0160208091040260200160405190810160405280929190818152602001828054610a8690612be3565b8015610ad35780601f10610aa857610100808354040283529160200191610ad3565b820191906000526020600020905b815481529060010190602001808311610ab657829003601f168201915b50505050508152602001600582018054610aec90612be3565b80601f0160208091040260200160405190810160405280929190818152602001828054610b1890612be3565b8015610b655780601f10610b3a57610100808354040283529160200191610b65565b820191906000526020600020905b815481529060010190602001808311610b4857829003601f168201915b50505050508152602001600682018054610b7e90612be3565b80601f0160208091040260200160405190810160405280929190818152602001828054610baa90612be3565b8015610bf75780601f10610bcc57610100808354040283529160200191610bf7565b820191906000526020600020905b815481529060010190602001808311610bda57829003601f168201915b50505050508152602001600782018054610c1090612be3565b80601f0160208091040260200160405190810160405280929190818152602001828054610c3c90612be3565b8015610c895780601f10610c5e57610100808354040283529160200191610c89565b820191906000526020600020905b815481529060010190602001808311610c6c57829003601f168201915b5050505050815260200160088201548152602001600982018054610cac90612be3565b80601f0160208091040260200160405190810160405280929190818152602001828054610cd890612be3565b8015610d255780601f10610cfa57610100808354040283529160200191610d25565b820191906000526020600020905b815481529060010190602001808311610d0857829003601f168201915b50505050508152602001600a8201548152602001600b820160009054906101000a900460ff166007811115610d5d57610d5c612b6a565b5b6007811115610d6f57610d6e612b6a565b5b8152602001600b820160019054906101000a900473ffffffffffffffffffffffffffffffffffffffff1673ffffffffffffffffffffffffffffffffffffffff1673ffffffffffffffffffffffffffffffffffffffff168152602001600c820160009054906101000a900473ffffffffffffffffffffffffffffffffffffffff1673ffffffffffffffffffffffffffffffffffffffff1673ffffffffffffffffffffffffffffffffffffffff168152602001600d820160009054906101000a900473ffffffffffffffffffffffffffffffffffffffff1673ffffffffffffffffffffffffffffffffffffffff1673ffffffffffffffffffffffffffffffffffffffff1681525050905080600001519950806020015198508061010001519750806101200151965080610140015195508061016001516007811115610eb557610eb4612b6a565b5b94508061018001519350806101a001519250806101c001519150509193959799909294969850565b610ee633611543565b610eef57600080fd5b610ef881612363565b8073ffffffffffffffffffffffffffffffffffffffff167fddbf200aa634dc3fb81cfd68583dd1040d1c751d335e1d86b631bde3e977fea860405160405180910390a250565b6000806000806060806060806000600760008b8152602001908152602001600020604051806101e001604052908160008201548152602001600182015481526020016002820160009054906101000a900473ffffffffffffffffffffffffffffffffffffffff1673ffffffffffffffffffffffffffffffffffffffff1673ffffffffffffffffffffffffffffffffffffffff1681526020016003820160009054906101000a900473ffffffffffffffffffffffffffffffffffffffff1673ffffffffffffffffffffffffffffffffffffffff1673ffffffffffffffffffffffffffffffffffffffff16815260200160048201805461103b90612be3565b80601f016020809104026020016040519081016040528092919081815260200182805461106790612be3565b80156110b45780601f10611089576101008083540402835291602001916110b4565b820191906000526020600020905b81548152906001019060200180831161109757829003601f168201915b505050505081526020016005820180546110cd90612be3565b80601f01602080910402602001604051908101604052809291908181526020018280546110f990612be3565b80156111465780601f1061111b57610100808354040283529160200191611146565b820191906000526020600020905b81548152906001019060200180831161112957829003601f168201915b5050505050815260200160068201805461115f90612be3565b80601f016020809104026020016040519081016040528092919081815260200182805461118b90612be3565b80156111d85780601f106111ad576101008083540402835291602001916111d8565b820191906000526020600020905b8154815290600101906020018083116111bb57829003601f168201915b505050505081526020016007820180546111f190612be3565b80601f016020809104026020016040519081016040528092919081815260200182805461121d90612be3565b801561126a5780601f1061123f5761010080835404028352916020019161126a565b820191906000526020600020905b81548152906001019060200180831161124d57829003601f168201915b505050505081526020016008820154815260200160098201805461128d90612be3565b80601f01602080910402602001604051908101604052809291908181526020018280546112b990612be3565b80156113065780601f106112db57610100808354040283529160200191611306565b820191906000526020600020905b8154815290600101906020018083116112e957829003601f168201915b50505050508152602001600a8201548152602001600b820160009054906101000a900460ff16600781111561133e5761133d612b6a565b5b60078111156113505761134f612b6a565b5b8152602001600b820160019054906101000a900473ffffffffffffffffffffffffffffffffffffffff1673ffffffffffffffffffffffffffffffffffffffff1673ffffffffffffffffffffffffffffffffffffffff168152602001600c820160009054906101000a900473ffffffffffffffffffffffffffffffffffffffff1673ffffffffffffffffffffffffffffffffffffffff1673ffffffffffffffffffffffffffffffffffffffff168152602001600d820160009054906101000a900473ffffffffffffffffffffffffffffffffffffffff1673ffffffffffffffffffffffffffffffffffffffff1673ffffffffffffffffffffffffffffffffffffffff1681525050905080600001519850806020015197508060400151965080606001519550806080015194508060a0015193508060c0015192508060e00151915050919395975091939597565b6114a5336116eb565b6114ae57600080fd5b6114b78161237a565b50565b6114c3336123d4565b565b60006114db8260036122a390919063ffffffff16565b9050919050565b6114eb336108a2565b6114f457600080fd5b6114fd8161242e565b8073ffffffffffffffffffffffffffffffffffffffff167f71ae26cad02663e3d92efd6ec56031a80d74a20c0ab4183faa8bf262261c9baa60405160405180910390a250565b60006115598260016122a390919063ffffffff16565b9050919050565b806005600781111561157557611574612b6a565b5b60076000838152602001908152602001600020600b0160009054906101000a900460ff1660078111156115ab576115aa612b6a565b5b146115b557600080fd5b6115be336108a2565b6115c757600080fd5b336007600084815260200190815260200160002060020160006101000a81548173ffffffffffffffffffffffffffffffffffffffff021916908373ffffffffffffffffffffffffffffffffffffffff1602179055503360076000848152602001908152602001600020600c0160006101000a81548173ffffffffffffffffffffffffffffffffffffffff021916908373ffffffffffffffffffffffffffffffffffffffff160217905550600660076000848152602001908152602001600020600b0160006101000a81548160ff021916908360078111156116ab576116aa612b6a565b5b02179055507fa8142743f8f70a4c26f3691cf4ed59718381fb2f18070ec52be1f1022d855557826040516116df9190612b99565b60405180910390a15050565b60006117018260006122a390919063ffffffff16565b9050919050565b611711336116eb565b61171a57600080fd5b604051806101e0016040528060065481526020018881526020018773ffffffffffffffffffffffffffffffffffffffff1681526020018773ffffffffffffffffffffffffffffffffffffffff168152602001868152602001858152602001848152602001838152602001600654896117929190612c44565b815260200182815260200160008152602001600060078111156117b8576117b7612b6a565b5b8152602001600073ffffffffffffffffffffffffffffffffffffffff168152602001600073ffffffffffffffffffffffffffffffffffffffff168152602001600073ffffffffffffffffffffffffffffffffffffffff1681525060076000898152602001908152602001600020600082015181600001556020820151816001015560408201518160020160006101000a81548173ffffffffffffffffffffffffffffffffffffffff021916908373ffffffffffffffffffffffffffffffffffffffff16021790555060608201518160030160006101000a81548173ffffffffffffffffffffffffffffffffffffffff021916908373ffffffffffffffffffffffffffffffffffffffff16021790555060808201518160040190805190602001906118e3929190612507565b5060a0820151816005019080519060200190611900929190612507565b5060c082015181600601908051906020019061191d929190612507565b5060e082015181600701908051906020019061193a929190612507565b506101008201518160080155610120820151816009019080519060200190611963929190612507565b5061014082015181600a015561016082015181600b0160006101000a81548160ff0219169083600781111561199b5761199a612b6a565b5b021790555061018082015181600b0160016101000a81548173ffffffffffffffffffffffffffffffffffffffff021916908373ffffffffffffffffffffffffffffffffffffffff1602179055506101a082015181600c0160006101000a81548173ffffffffffffffffffffffffffffffffffffffff021916908373ffffffffffffffffffffffffffffffffffffffff1602179055506101c082015181600d0160006101000a81548173ffffffffffffffffffffffffffffffffffffffff021916908373ffffffffffffffffffffffffffffffffffffffff1602179055509050506001600654611a8a9190612c44565b6006819055507f8e55ccfc9778ff8eba1646d765cf1982537ce0f9257054a17b48aad74525018387604051611abf9190612b99565b60405180910390a150505050505050565b8060066007811115611ae557611ae4612b6a565b5b60076000838152602001908152602001600020600b0160009054906101000a900460ff166007811115611b1b57611b1a612b6a565b5b14611b2557600080fd5b611b2e336114c5565b611b3757600080fd5b336007600084815260200190815260200160002060020160006101000a81548173ffffffffffffffffffffffffffffffffffffffff021916908373ffffffffffffffffffffffffffffffffffffffff1602179055503360076000848152602001908152602001600020600d0160006101000a81548173ffffffffffffffffffffffffffffffffffffffff021916908373ffffffffffffffffffffffffffffffffffffffff1602179055506007806000848152602001908152602001600020600b0160006101000a81548160ff02191690836007811115611c1a57611c19612b6a565b5b02179055507f653d56639fee6b566a5c804764e9689de38645f0b733df89a36a1b7b42173dd882604051611c4e9190612b99565b60405180910390a15050565b611c6333612445565b3373ffffffffffffffffffffffffffffffffffffffff167fdb7176e79cffef81cb01767dd0447a0b24bb72ca9778d4b245581086b2a7e6db60405160405180910390a2565b8060036007811115611cbd57611cbc612b6a565b5b60076000838152602001908152602001600020600b0160009054906101000a900460ff166007811115611cf357611cf2612b6a565b5b14611cfd57600080fd5b60076000838152602001908152602001600020600a015480341015611d57576040517f08c379a0000000000000000000000000000000000000000000000000000000008152600401611d4e90612d0c565b60405180910390fd5b82611d6133611543565b611d6a57600080fd5b336007600086815260200190815260200160002060020160006101000a81548173ffffffffffffffffffffffffffffffffffffffff021916908373ffffffffffffffffffffffffffffffffffffffff1602179055503360076000868152602001908152602001600020600b0160016101000a81548173ffffffffffffffffffffffffffffffffffffffff021916908373ffffffffffffffffffffffffffffffffffffffff160217905550600460076000868152602001908152602001600020600b0160006101000a81548160ff02191690836007811115611e4e57611e4d612b6a565b5b021790555060006007600086815260200190815260200160002060030160009054906101000a900473ffffffffffffffffffffffffffffffffffffffff1690508073ffffffffffffffffffffffffffffffffffffffff166108fc349081150290604051600060405180830381858888f19350505050158015611ed4573d6000803e3d6000fd5b507f653d56639fee6b566a5c804764e9689de38645f0b733df89a36a1b7b42173dd885604051611f049190612b99565b60405180910390a150600060076000838152602001908152602001600020600a0154905060008134611f369190612d2c565b905060076000848152602001908152602001600020600b0160019054906101000a905050505050505050565b8060016007811115611f7757611f76612b6a565b5b60076000838152602001908152602001600020600b0160009054906101000a900460ff166007811115611fad57611fac612b6a565b5b14611fb757600080fd5b6007600083815260200190815260200160002060030160009054906101000a900473ffffffffffffffffffffffffffffffffffffffff168073ffffffffffffffffffffffffffffffffffffffff163373ffffffffffffffffffffffffffffffffffffffff161461202657600080fd5b600260076000858152602001908152602001600020600b0160006101000a81548160ff021916908360078111156120605761205f612b6a565b5b02179055507f9b3b66e2380b690bae22c73ef1428fb0c91e72fe14a4b6defa13035214187aff836040516120949190612b99565b60405180910390a1505050565b80600460078111156120b6576120b5612b6a565b5b60076000838152602001908152602001600020600b0160009054906101000a900460ff1660078111156120ec576120eb612b6a565b5b146120f657600080fd5b60076000838152602001908152602001600020600b0160019054906101000a900473ffffffffffffffffffffffffffffffffffffffff168073ffffffffffffffffffffffffffffffffffffffff163373ffffffffffffffffffffffffffffffffffffffff161461216557600080fd5b600560076000858152602001908152602001600020600b0160006101000a81548160ff0219169083600781111561219f5761219e612b6a565b5b02179055507ff00b9a5725b80c54016f42114f6ed7792d22eecb116011c4afac29c57bef6c95836040516121d39190612b99565b60405180910390a1505050565b600073ffffffffffffffffffffffffffffffffffffffff168173ffffffffffffffffffffffffffffffffffffffff16141561221a57600080fd5b61222482826122a3565b1561222e57600080fd5b60018260000160008373ffffffffffffffffffffffffffffffffffffffff1673ffffffffffffffffffffffffffffffffffffffff16815260200190815260200160002060006101000a81548160ff0219169083151502179055505050565b6122a08160036121e090919063ffffffff16565b50565b60008073ffffffffffffffffffffffffffffffffffffffff168273ffffffffffffffffffffffffffffffffffffffff1614156122de57600080fd5b8260000160008373ffffffffffffffffffffffffffffffffffffffff1673ffffffffffffffffffffffffffffffffffffffff16815260200190815260200160002060009054906101000a900460ff16905092915050565b61234981600361245c90919063ffffffff16565b50565b61236081600161245c90919063ffffffff16565b50565b6123778160016121e090919063ffffffff16565b50565b61238e8160006121e090919063ffffffff16565b8073ffffffffffffffffffffffffffffffffffffffff167f2e0ded4123377a3c2bc9a26f1717655a129e2f20752924d42e730ec89c83dbd060405160405180910390a250565b6123e881600061245c90919063ffffffff16565b8073ffffffffffffffffffffffffffffffffffffffff167fa5e0f060af304ab17dd418c7927e3da3ae7868189bf387aee09ab179ccc572f260405160405180910390a250565b6124428160026121e090919063ffffffff16565b50565b61245981600261245c90919063ffffffff16565b50565b600073ffffffffffffffffffffffffffffffffffffffff168173ffffffffffffffffffffffffffffffffffffffff16141561249657600080fd5b6124a082826122a3565b6124a957600080fd5b60008260000160008373ffffffffffffffffffffffffffffffffffffffff1673ffffffffffffffffffffffffffffffffffffffff16815260200190815260200160002060006101000a81548160ff0219169083151502179055505050565b82805461251390612be3565b90600052602060002090601f016020900481019282612535576000855561257c565b82601f1061254e57805160ff191683800117855561257c565b8280016001018555821561257c579182015b8281111561257b578251825591602001919060010190612560565b5b509050612589919061258d565b5090565b5b808211156125a657600081600090555060010161258e565b5090565b6000604051905090565b600080fd5b600080fd5b600073ffffffffffffffffffffffffffffffffffffffff82169050919050565b60006125e9826125be565b9050919050565b6125f9816125de565b811461260457600080fd5b50565b600081359050612616816125f0565b92915050565b600060208284031215612632576126316125b4565b5b600061264084828501612607565b91505092915050565b6000819050919050565b61265c81612649565b811461266757600080fd5b50565b60008135905061267981612653565b92915050565b60008060408385031215612696576126956125b4565b5b60006126a48582860161266a565b92505060206126b58582860161266a565b9150509250929050565b6000602082840312156126d5576126d46125b4565b5b60006126e38482850161266a565b91505092915050565b60008115159050919050565b612701816126ec565b82525050565b600060208201905061271c60008301846126f8565b92915050565b61272b81612649565b82525050565b600081519050919050565b600082825260208201905092915050565b60005b8381101561276b578082015181840152602081019050612750565b8381111561277a576000848401525b50505050565b6000601f19601f8301169050919050565b600061279c82612731565b6127a6818561273c565b93506127b681856020860161274d565b6127bf81612780565b840191505092915050565b6127d3816125de565b82525050565b6000610120820190506127ef600083018c612722565b6127fc602083018b612722565b612809604083018a612722565b818103606083015261281b8189612791565b905061282a6080830188612722565b61283760a0830187612722565b61284460c08301866127ca565b61285160e08301856127ca565b61285f6101008301846127ca565b9a9950505050505050505050565b600061010082019050612883600083018b612722565b612890602083018a612722565b61289d60408301896127ca565b6128aa60608301886127ca565b81810360808301526128bc8187612791565b905081810360a08301526128d08186612791565b905081810360c08301526128e48185612791565b905081810360e08301526128f88184612791565b90509998505050505050505050565b600080fd5b600080fd5b7f4e487b7100000000000000000000000000000000000000000000000000000000600052604160045260246000fd5b61294982612780565b810181811067ffffffffffffffff8211171561296857612967612911565b5b80604052505050565b600061297b6125aa565b90506129878282612940565b919050565b600067ffffffffffffffff8211156129a7576129a6612911565b5b6129b082612780565b9050602081019050919050565b82818337600083830152505050565b60006129df6129da8461298c565b612971565b9050828152602081018484840111156129fb576129fa61290c565b5b612a068482856129bd565b509392505050565b600082601f830112612a2357612a22612907565b5b8135612a338482602086016129cc565b91505092915050565b600080600080600080600060e0888a031215612a5b57612a5a6125b4565b5b6000612a698a828b0161266a565b9750506020612a7a8a828b01612607565b965050604088013567ffffffffffffffff811115612a9b57612a9a6125b9565b5b612aa78a828b01612a0e565b955050606088013567ffffffffffffffff811115612ac857612ac76125b9565b5b612ad48a828b01612a0e565b945050608088013567ffffffffffffffff811115612af557612af46125b9565b5b612b018a828b01612a0e565b93505060a088013567ffffffffffffffff811115612b2257612b216125b9565b5b612b2e8a828b01612a0e565b92505060c088013567ffffffffffffffff811115612b4f57612b4e6125b9565b5b612b5b8a828b01612a0e565b91505092959891949750929550565b7f4e487b7100000000000000000000000000000000000000000000000000000000600052602160045260246000fd5b6000602082019050612bae6000830184612722565b92915050565b7f4e487b7100000000000000000000000000000000000000000000000000000000600052602260045260246000fd5b60006002820490506001821680612bfb57607f821691505b60208210811415612c0f57612c0e612bb4565b5b50919050565b7f4e487b7100000000000000000000000000000000000000000000000000000000600052601160045260246000fd5b6000612c4f82612649565b9150612c5a83612649565b9250827fffffffffffffffffffffffffffffffffffffffffffffffffffffffffffffffff03821115612c8f57612c8e612c15565b5b828201905092915050565b7f56616c7565206973206c657373207468616e207072696365206f72206e6f207060008201527f7269636520657869737400000000000000000000000000000000000000000000602082015250565b6000612cf6602a8361273c565b9150612d0182612c9a565b604082019050919050565b60006020820190508181036000830152612d2581612ce9565b9050919050565b6000612d3782612649565b9150612d4283612649565b925082821015612d5557612d54612c15565b5b82820390509291505056fea264697066735822122006beaa0de02e31b69ff001f0c81498a57711350f121be1d144b171af00326b3464736f6c63430008090033",
  "immutableReferences": {},
  "source": "// SPDX-License-Identifier: MIT\npragma solidity ^0.8.9;\n\n\nimport \"../coffeeaccesscontrol/FarmerRole.sol\";\nimport \"../coffeeaccesscontrol/DistributorRole.sol\";\nimport \"../coffeeaccesscontrol/RetailerRole.sol\";\nimport \"../coffeeaccesscontrol/ConsumerRole.sol\";\nimport \"../coffeecore/Ownable.sol\";\n\n// Define a contract 'Supplychain'\ncontract SupplyChain is FarmerRole, DistributorRole, RetailerRole, ConsumerRole {\n\n  // Define 'owner'\n  address owner;\n\n  // Define a variable called 'upc' for Universal Product Code (UPC)\n  uint  upc;\n\n  // Define a variable called 'sku' for Stock Keeping Unit (SKU)\n  uint  sku;\n\n  // Define a public mapping 'items' that maps the UPC to an Item.\n  mapping (uint => Item) items;\n\n  // Define a public mapping 'itemsHistory' that maps the UPC to an array of TxHash, \n  // that track its journey through the supply chain -- to be sent from DApp.\n  mapping (uint => string[]) itemsHistory;\n  \n  // Define enum 'State' with the following values:\n  enum State \n  { \n    Harvested,  // 0\n    Processed,  // 1\n    Packed,     // 2\n    ForSale,    // 3\n    Sold,       // 4\n    Shipped,    // 5\n    Received,   // 6\n    Purchased   // 7\n    }\n\n  State constant defaultState = State.Harvested;\n\n  // Define a struct 'Item' with the following fields:\n  struct Item {\n    uint    sku;  // Stock Keeping Unit (SKU)\n    uint    upc; // Universal Product Code (UPC), generated by the Farmer, goes on the package, can be verified by the Consumer\n    address ownerID;  // Metamask-Ethereum address of the current owner as the product moves through 8 stages\n    address originFarmerID; // Metamask-Ethereum address of the Farmer\n    string  originFarmName; // Farmer Name\n    string  originFarmInformation;  // Farmer Information\n    string  originFarmLatitude; // Farm Latitude\n    string  originFarmLongitude;  // Farm Longitude\n    uint    productID;  // Product ID potentially a combination of upc + sku\n    string  productNotes; // Product Notes\n    uint    productPrice; // Product Price\n    State   itemState;  // Product State as represented in the enum above\n    address distributorID;  // Metamask-Ethereum address of the Distributor\n    address retailerID; // Metamask-Ethereum address of the Retailer\n    address consumerID; // Metamask-Ethereum address of the Consumer\n  }\n\n  // Define 8 events with the same 8 state values and accept 'upc' as input argument\n  event Harvested(uint upc);\n  event Processed(uint upc);\n  event Packed(uint upc);\n  event ForSale(uint upc);\n  event Sold(uint upc);\n  event Shipped(uint upc);\n  event Received(uint upc);\n  event Purchased(uint upc);\n\n  // Define a modifer that checks to see if msg.sender == owner of the contract\n  modifier onlyOwner() {\n    require(msg.sender == owner);\n    _;\n  }\n\n  // Define a modifer that verifies the Caller\n  modifier verifyCaller (address _address) {\n    require(msg.sender == _address); \n    _;\n  }\n\n  // Define a modifier that checks if the paid amount is sufficient to cover the price\n  modifier paidEnough(uint _price) { \n    require(msg.value >= _price,\"Value is less than price or no price exist\"); \n    _;\n  }\n  \n  // Define a modifier that checks the price and refunds the remaining balance\n  modifier checkValue(uint _upc) {\n    _;\n    uint _price = items[_upc].productPrice;\n    uint amountToReturn = msg.value - _price;\n\n    // Recommended way of transferring ether as explained in this thread:https://ethereum.stackexchange.com/questions/19341/address-send-vs-address-transfer-best-practice-usage\n    items[_upc].distributorID.call{value:amountToReturn};\n    // payable(items[_upc].distributorID).transfer(amountToReturn);\n  }\n\n  // Define a modifier that checks if an item.state of a upc is Harvested\n  modifier harvested(uint _upc) {\n    require(items[_upc].itemState == State.Harvested);\n    _;\n  }\n\n  // Define a modifier that checks if an item.state of a upc is Processed\n  modifier processed(uint _upc) {\n    require(items[_upc].itemState == State.Processed);\n    _;\n  }\n  \n  // Define a modifier that checks if an item.state of a upc is Packed\n  modifier packed(uint _upc) {\n    require(items[_upc].itemState == State.Packed);\n    _;\n  }\n\n  // Define a modifier that checks if an item.state of a upc is ForSale\n  modifier forSale(uint _upc) {\n    require(items[_upc].itemState == State.ForSale);\n    _;\n  }\n\n  // Define a modifier that checks if an item.state of a upc is Sold\n  modifier sold(uint _upc) {\n    require(items[_upc].itemState == State.Sold);\n    _;\n  }\n  \n  // Define a modifier that checks if an item.state of a upc is Shipped\n  modifier shipped(uint _upc) {\n    require(items[_upc].itemState == State.Shipped);\n    _;\n  }\n\n  // Define a modifier that checks if an item.state of a upc is Received\n  modifier received(uint _upc) {\n    require(items[_upc].itemState == State.Received);\n    _;\n  }\n\n  // Define a modifier that checks if an item.state of a upc is Purchased\n  modifier purchased(uint _upc) {\n    require(items[_upc].itemState == State.Purchased);\n    _;\n  }\n\n  // In the constructor set 'owner' to the address that instantiated the contract\n  // and set 'sku' to 1\n  // and set 'upc' to 1\n  constructor()  {\n    owner = msg.sender;\n    sku = 1;\n    upc = 1;\n  }\n\n  // Define a function 'kill' if required\n  function kill() public {\n    if (msg.sender == owner) {\n      selfdestruct(payable(owner));\n    }\n  }\n\n  \n\n  // Define a function 'harvestItem' that allows a farmer to mark an item 'Harvested'\n  function harvestItem(uint _upc, address _originFarmerID, string memory _originFarmName, string memory _originFarmInformation, string memory  _originFarmLatitude, string memory _originFarmLongitude, string memory _productNotes) public onlyFarmer \n  {\n    // Add the new item as part of Harvest\n    items[_upc] = Item(\n      sku,\n      _upc,\n      _originFarmerID,\n      _originFarmerID,\n      _originFarmName, \n      _originFarmInformation, \n      _originFarmLatitude, \n      _originFarmLongitude, \n      _upc+sku,\n      _productNotes,\n      0,\n      defaultState,\n      address(0),\n      address(0),\n      address(0)\n      );\n    \n    // Increment sku\n    sku = sku + 1;\n    // Emit the appropriate event\n    emit Harvested(_upc);\n    \n  }\n\n  // Define a function 'processtItem' that allows a farmer to mark an item 'Processed'\n  function processItem(uint _upc) harvested(_upc) verifyCaller(items[_upc].originFarmerID)  public \n  \n  // Call modifier to verify caller of this function\n  \n  {\n    // Update the appropriate fields\n    items[_upc].itemState = State.Processed; \n    \n    // Emit the appropriate event\n    emit Processed(_upc);\n    \n  }\n\n  // Define a function 'packItem' that allows a farmer to mark an item 'Packed'\n  function packItem(uint _upc) processed(_upc) verifyCaller(items[_upc].originFarmerID) public \n  // Call modifier to check if upc has passed previous supply chain stage\n  \n  // Call modifier to verify caller of this function\n  \n  {\n    // Update the appropriate fields\n    items[_upc].itemState = State.Packed;\n    \n    // Emit the appropriate event\n    emit Packed(_upc);\n    \n  }\n\n  // Define a function 'sellItem' that allows a farmer to mark an item 'ForSale'\n  function sellItem(uint _upc, uint _price) packed(_upc) verifyCaller(items[_upc].originFarmerID) public \n  // Call modifier to check if upc has passed previous supply chain stage\n  \n  // Call modifier to verify caller of this function\n  \n  {\n    // Update the appropriate fields\n    items[_upc].productPrice = _price;\n    items[_upc].itemState =  State.ForSale;\n    \n    // Emit the appropriate event\n    emit ForSale(_upc);\n    \n  }\n\n  // Define a function 'buyItem' that allows the disributor to mark an item 'Sold'\n  // Use the above defined modifiers to check if the item is available for sale, if the buyer has paid enough, \n  // and any excess ether sent is refunded back to the buyer\n  function buyItem(uint _upc)  public payable \n    // Call modifier to check if upc has passed previous supply chain stage\n    forSale(_upc)\n    // Call modifer to check if buyer has paid enough\n    paidEnough(items[_upc].productPrice)\n    // Call modifer to send any excess ether back to buyer\n    checkValue(_upc)\n    onlyDistributor\n    {\n    \n    // Update the appropriate fields - ownerID, distributorID, itemState\n    items[_upc].ownerID = msg.sender;\n    items[_upc].distributorID = msg.sender;\n    items[_upc].itemState = State.Sold;\n    \n    // Transfer money to farmer\n    address payable farmerAddress = payable(items[_upc].originFarmerID);\n\n    farmerAddress.transfer(msg.value);\n\n    \n    // emit the appropriate event\"\n    emit Purchased(_upc);\n    \n  }\n\n  // Define a function 'shipItem' that allows the distributor to mark an item 'Shipped'\n  // Use the above modifers to check if the item is sold\n  function shipItem(uint _upc) sold(_upc) verifyCaller(items[_upc].distributorID) public \n    // Call modifier to check if upc has passed previous supply chain stage\n    \n    // Call modifier to verify caller of this function\n    \n    {\n    // Update the appropriate fields\n    items[_upc].itemState = State.Shipped;\n    \n    // Emit the appropriate event\n    emit Shipped(_upc);\n    \n  }\n\n  // Define a function 'receiveItem' that allows the retailer to mark an item 'Received'\n  // Use the above modifiers to check if the item is shipped\n  function receiveItem(uint _upc)  public \n    // Call modifier to check if upc has passed previous supply chain stage\n     shipped(_upc)\n    // Access Control List enforced by calling Smart Contract / DApp\n    onlyRetailer\n    {\n    // Update the appropriate fields - ownerID, retailerID, itemState\n    items[_upc].ownerID = msg.sender;\n    items[_upc].retailerID = msg.sender;\n    items[_upc].itemState = State.Received;\n    \n    // Emit the appropriate event\n    emit Received(_upc);\n    \n  }\n\n  // Define a function 'purchaseItem' that allows the consumer to mark an item 'Purchased'\n  // Use the above modifiers to check if the item is received\n  function purchaseItem(uint _upc) public \n    // Call modifier to check if upc has passed previous supply chain stage\n    received(_upc) \n    // Access Control List enforced by calling Smart Contract / DApp\n    onlyConsumer\n    {\n    // Update the appropriate fields - ownerID, consumerID, itemState\n    items[_upc].ownerID = msg.sender;\n    items[_upc].consumerID = msg.sender;\n    items[_upc].itemState = State.Purchased;\n    \n    // Emit the appropriate event\n    emit Purchased(_upc);\n    \n  }\n\n  // Define a function 'fetchItemBufferOne' that fetches the data\n  function fetchItemBufferOne(uint _upc) public view returns \n  (\n  uint    itemSKU,\n  uint    itemUPC,\n  address ownerID,\n  address originFarmerID,\n  string memory originFarmName,\n  string memory originFarmInformation,\n  string memory originFarmLatitude,\n  string memory originFarmLongitude\n  ) \n  {\n  // Assign values to the 8 parameters\n  Item memory targetItem = items[_upc];\n\n  itemSKU = targetItem.sku;\n  itemUPC = targetItem.upc;\n  ownerID = targetItem.ownerID;\n  originFarmerID = targetItem.originFarmerID;\n  originFarmName = targetItem.originFarmName;\n  originFarmInformation = targetItem.originFarmInformation;\n  originFarmLatitude = targetItem.originFarmLatitude;\n  originFarmLongitude = targetItem.originFarmLongitude;\n  \n    \n  return \n  (\n  itemSKU,\n  itemUPC,\n  ownerID,\n  originFarmerID,\n  originFarmName,\n  originFarmInformation,\n  originFarmLatitude,\n  originFarmLongitude\n  );\n  }\n\n  // Define a function 'fetchItemBufferTwo' that fetches the data\n  function fetchItemBufferTwo(uint _upc) public view returns \n  (\n  uint    itemSKU,\n  uint    itemUPC,\n  uint    productID,\n  string memory productNotes,\n  uint    productPrice,\n  uint    itemState,\n  address distributorID,\n  address retailerID,\n  address consumerID\n  ) \n  {\n    // Assign values to the 9 parameters\n    Item memory targetItem = items[_upc];\n\n  itemSKU = targetItem.sku;\n  itemUPC = targetItem.upc;\n  productID = targetItem.productID;\n  productNotes = targetItem.productNotes;\n  productPrice = targetItem.productPrice;\n  itemState = uint(targetItem.itemState); \n  distributorID = targetItem.distributorID;\n  retailerID = targetItem.retailerID;\n  consumerID = targetItem.consumerID;\n  \n    \n  return \n  (\n  itemSKU,\n  itemUPC,\n  productID,\n  productNotes,\n  productPrice,\n  itemState,\n  distributorID,\n  retailerID,\n  consumerID\n  );\n  }\n}\n",
  "sourcePath": "/home/blockchain03/workspace/coffee-supply-chain-dApp/contracts/coffeebase/SupplyChain.sol",
  "compiler": {
    "name": "solc",
    "version": "0.8.9+commit.e5eed63a.Emscripten.clang"
  },
  "schemaVersion": "3.4.6",
  "updatedAt": "2022-05-25T03:03:07.709Z",
  "networkType": "ethereum",
  "devdoc": {
    "kind": "dev",
    "methods": {},
    "version": 1
  },
  "userdoc": {
    "kind": "user",
    "methods": {},
    "version": 1
  }
}